:03000000020003F8
:0C000300787FE4F6D8FD75815D02004AAC
:0502480012015080FED0
:0F0214007D607C09ED1D70011C144C70F7DFF14B
:0102230022B8
:0F0224007D027C00ED1D70011C144C70F7DFF1A2
:0102330022A8
:0D00F5000851FEFDFBF7EFDFBF7F0150015A
:1001840043BA80759330759430759130759230759B
:10019400953C75963C75B15075B25075B33C75B4C9
:1001A4003C75C90C75CA0CE4F5CBF5CCF5E1F5E268
:0301B400C2C022A4
:08024000E4F594F593C280225D
:1001E2001202401202027F021202142086097D02CC
:1001F2007C007F0112008F7F0212021475F8FF2229
:1001B700E4F55C12024012020275F87F2086FD7F8B
:1001C700141202142086F5E55C30E00575E8F98025
:0B01D7000375E8C0055C2086E380FB98
:10015000E4F55D1202401202027F021202142086B0
:10016000177F1412021420860FE55DFD7C007F01CD
:1001700012008F055D3086FDE55DD3940940DFE414
:04018000F55D80DACF
:10010200204010000000C0000000F9000000A40020
:100112000000B00000009900000092000000820080
:100122000000F8000000800000009000000088003D
:10013200000083000000C6000000A100000086004D
:0D01420000008E0808010204081020408013
:1002020075E2FF75E1FFE4F5CCF5CB75F8FF8513D8
:02021200E822E0
:10008F00120202E4F5E8EF14B4080050479000AAFA
:10009F0075F003A4C58325F0C583730200C2020067
:1000AF00C60200CA0200CE0200D20200D60200DA57
:1000BF000200DEE50F801AE50E8016E50D8012E5D1
:1000CF000C800EE50B800AE50A8006E5098002E543
:1000DF0008F4F5F8ED25E025E02410F81202348F2E
:0600EF00E87F010202148B
:10000F00020248E493A3F8E493A34003F68001F2BD
:10001F0008DFF48029E493A3F85407240CC8C333F2
:10002F00C4540F4420C8834004F456800146F6DFC1
:10003F00E4800B01020408102040809000F5E47E5C
:10004F00019360BCA3FF543F30E509541FFEE493B6
:10005F00A360010ECF54C025E060A840B8E493A37D
:10006F00FAE493A3F8E493A3C8C582C8CAC583CAA8
:10007F00F0A3C8C582C8CAC583CADFE9DEE780BE60
:01014F0000AF
:0C023400E6FC08E6FD08E6FE08E6FF22F6
:00000001FF
