:10009E00120003C2C075E8FF7DFE7F0112005F7F74
:0800AE00011200318FE880FE11
:0300C300020084B4
:10008400C0E0C083C08290FE82E030E606E054BF48
:0A009400F0C200D082D083D0E03229
:1000030043BA90E4F594F593F592F591F596F59549
:10001300F5B2F5B1F5B4F5B3F5CAF5C9F5CCF5CB41
:0E00230090FE8074E0F090FE82E4F0D2AF22F6
:0C00B600D20090FE817481F02000FD2239
:1000EB0090FE86EFF0D20090FE817482F02000FD2E
:0100FB0022E2
:0C013F00D20090FE817483F02000FD22AD
:1000FC00D20090FE817484F02000FD90FE87E0FF1A
:01010C0022D0
:10010D0090FE82E4F0D20090FE817485F02000FD17
:01011D0022BF
:1000D90090FE827401F0D20090FE817485F02000B8
:0200E900FD22F6
:0C014B00D20090FE817486F02000FD229E
:1000C600E4FFFE000000000FBF00010EBE0BF4BFF0
:0200D600B8F17F
:0100D8002205
:0F012F007D607C09ED1D70011C144C70F7DFF131
:01013E00229E
:10011E00EF1FAC0670011E4C60060000000080F060
:01012E0022AE
:10005F008F088D091200B67FA01200EB12013FAF7F
:10006F00081200EB12013FAF091200EB12013F1211
:05007F00014B0200C668
:020031008F0836
:100033001200B67FA01200EB12013FAF081200EBD3
:1000430012013F1200B67FA11200EB12013F120012
:0B005300FC8F091200D912014BAF090D
:01005E00227F
:03000000020157A3
:0C015700787FE4F6D8FD75812002009E40
:00000001FF
