:030000000200916A
:0C009100787FE4F6D8FD7581620200D88B
:0C046A0048454C4C4F20574F524C44006A
:100413001203E57BFF7A04796A7D017F01120325CC
:0204230080F166
:0F045A007D607C09ED1D70011C144C70F7DFF103
:010469002270
:10044900EF1FAC0670011E4C60060000000080F032
:010459002280
:0D0183000851FEFDFBF7EFDFBF7F015A01C1
:1002670043BA8075933075943075913075923075B7
:10027700953C75963C75B15075B25075B33C75B4E5
:100287003C75C90C75CA0CE4F5CBF5CCF5E1F5E284
:03029700C2C022C0
:1002330012026775E8FFE4F55BAF5B7401A807087A
:100243008002C333D8FCF4F5E87F3212045A75E810
:10025300FF7F3212045A055BE55BC3940840DA7FE3
:04026300F402045A43
:1002FC0012026775E8FFE4F55A7F7FA85AEF088071
:10030C000103D8FDF5E87F6412045A055AE55AC377
:09031C00940840E57FF402045A44
:10034B0012026775E8FFE4F55974512559F8E6F583
:10035B00E87FC812045A0559E559C3940840EA7F4F
:04036B00F402045A3A
:1002CD0012026775E8FF755B0875E8FFAF5B740197
:1002DD00A807088002C333D8FCF452E87FC8120483
:0F02ED005A155BE55BC3940050DF7FF402045A9F
:1003900075E2FF75E1FFE4F5CCF5CBF58EF58975D7
:0D03A0008AB0758C3C758810D2AFD2A922AE
:10019000204011000000C0000000F9000000A40091
:1001A0000000B000000099000000920000008200F2
:1001B0000000F800000080000000900000008800AF
:1001C000000083000000C6000000A10000008600BF
:1001D00000008E0809010204081020408001080078
:1004250075E2FF75E1FFE4F5CCF5CB75F8FF8514B2
:02043500E822BB
:10011D00120425E4F5E8EF14B408005047900138B7
:10012D0075F003A4C58325F0C58373020150020148
:10013D005402015802015C0201600201640201686F
:10014D0002016CE510801AE50F8016E50E8012E5B0
:10015D000D800EE50C800AE50B8006E50A8002E5B0
:10016D0009F4F5F8ED25E025E02411F81202278FAA
:06017D00E87F0102045AB4
:10029A00E4F5F8850882F5831201FA25E025E024C1
:1002AA0011F81202278FE8AF087401A80708800224
:1002BA00C333D8FCF4F5F8E508045407F5087F01C0
:0302CA0002045AD1
:06048000E4F594F593225F
:1000030012048075800FE580640F607B7F0A120401
:100013005AE580640F60737580BFE58064BF600537
:10002300E4F560801175807F7F0A12045AE58064CD
:100033007F6003756001E58020E005E4F561801CC5
:10004300E58020E1057561018012E58020E20575F8
:1000530061028008E58020E303756103E56025E024
:1000630025E02561F562AF807E00E5607005FC7DCB
:10007300BF80047C007D7FEDB507EBECB506E77F21
:0D0083000A12045AAF62227F10227580FF1E
:01009000224D
:10036F0053877F759850538EBF538EFE53890F431B
:10037F008920758BFD758DFDC2ABD28ED2AFD2ACFD
:01038F00224B
:1003E5007F011203AD7F061203AD7F0C1203AD7FB3
:0903F500381203AD7F800203AD54
:1004370075E8FFC2C5D2C2D2C0AFE8C2C0EF20E79D
:01044700F6BE
:010448002291
:1003AD00AE07120437C2C5C2C2C2C08EE87F0212A8
:0C03BD00045AD2C07F0512045AC2C022AC
:1003C900AE07120437D2C5C2C2C2C08EE87F02127C
:0C03D900045AD2C07F0712045AC2C0228E
:0A0476007F011203AD7F0102045A5A
:1003FE00EDBF010514F55F8004243FF55FE55F4412
:05040E0080FF0203ADB8
:100325008B5C8A5D895E1203FEAB5CAA5DA95E12D9
:1003350001E1FF60101203C97401255EF55EE43525
:060345005DF55D80E4227D
:10009D00020413E493A3F8E493A34003F68001F262
:1000AD0008DFF48029E493A3F85407240CC8C33364
:1000BD00C4540F4420C8834004F456800146F6DF33
:1000CD00E4800B0102040810204080900183E47E3F
:1000DD00019360BCA3FF543F30E509541FFEE49328
:1000ED00A360010ECF54C025E060A840B8E493A3EF
:1000FD00FAE493A3F8E493A3C8C582C8CAC583CA1A
:10010D00F0A3C8C582C8CAC583CADFE9DEE780BED1
:0101E000001E
:1001E100BB010689828A83E0225002E722BBFE021C
:0901F100E32289828A83E493224F
:1001FA00BB010CE58229F582E5833AF583E02250BA
:10020A0006E92582F8E622BBFE06E92582F8E22203
:0D021A00E58229F582E5833AF583E493221D
:0C022700E6FC08E6FD08E6FE08E6FF2203
:00000001FF
