:03000000020143B7
:0C014300787FE4F6D8FD75811E02018A69
:080389007030B090C0E0E060AC
:1003690075CCF0E4F5CB7F5AFEFDFC1201CF80FE7F
:0801CF008F178E168D158C149C
:1001D700E4F519F51DF51CF51BF51AFF7E10FDFC5E
:1001E700AB17AA16A915A814120006E47B687A01B2
:1001F700F9F81200918F1D8E1C8D1B8C1A781A74BA
:10020700FF120125EC4D4E4F601D85E81853180F5E
:10021700E5199003899342188518E80519531907BA
:0A0227007F0512037980D643E8F04A
:0102310022AA
:0F0379007D607C09ED1D70011C144C70F7DFF1E5
:010388002252
:0D0358000809FEFDFBF7EFDFBF7F01080184
:1002660043BA8075933075943075913075923075B8
:10027600953C75963C75B15075B25075B33C75B4E6
:100286003C75C90C75CA0CE4F5CBF5CCF5E1F5E285
:03029600C2C022C1
:1002320012026675E8FFE4F513AF137401A807080C
:100242008002C333D8FCF4F5E87F3212037975E8F3
:10025200FF7F321203790513E513C3940840DA7F56
:04026200F402037926
:1002F50012026675E8FFE4F5127F7FA812EF088009
:100305000103D8FDF5E87F641203790512E512C3F0
:09031500940840E57FF40203792D
:10031E0012026675E8FFE4F51174092511F8E6F589
:10032E00E87FC81203790511E511C3940840EA7FEE
:04033E00F402037949
:1002990012026675E8FF75130875E8FFAF1374015C
:1002A900A807088002C333D8FCF452E87FC81203B8
:0F02B900791513E513C3940050DF7FF402037926
:03036500011E0076
:1002C80075B4FF75B3FFE4F5CCF5CBC2C0F58E531A
:1002D80089F0F589758AB0758C3CD28C308DFDC259
:0D02E8008D051EE51EB414F463E8FF80EFE1
:03000300020342B3
:10034200C0E0C0D0051EE51EB41406751E0063E8A9
:06035200FFD0D0D0E03224
:10014F00020369E493A3F8E493A34003F68001F25A
:10015F0008DFF48029E493A3F85407240CC8C333B1
:10016F00C4540F4420C8834004F456800146F6DF80
:10017F00E4800B0102040810204080900358E47EB5
:10018F00019360BCA3FF543F30E509541FFEE49375
:10019F00A360010ECF54C025E060A840B8E493A33C
:1001AF00FAE493A3F8E493A3C8C582C8CAC583CA67
:1001BF00F0A3C8C582C8CAC583CADFE9DEE780BE1F
:010368000094
:10000600E88FF0A4CC8BF0A42CFCE98EF0A42CFC99
:100016008AF0EDA42CFCEA8EF0A4CDA8F08BF0A417
:100026002DCC3825F0FDE98FF0A42CCD35F0FCEB76
:100036008EF0A4FEA9F0EB8FF0A4CFC5F02ECD393B
:0F004600FEE43CFCEAA42DCE35F0FDE43CFC22A8
:1000550075F008758200EF2FFFEE33FECD33CDCC62
:1000650033CCC58233C5829BED9AEC99E5829840E5
:100075000CF582EE9BFEED9AFDEC99FC0FD5F0D6C2
:10008500E4CEFBE4CDFAE4CCF9A88222B800C1B9EC
:100095000059BA002DEC8BF084CFCECDFCE5F0CB2A
:1000A500F97818EF2FFFEE33FEED33FDEC33FCEB63
:1000B50033FB10D703994004EB99FB0FD8E5E4F91E
:1000C500FA227818EF2FFFEE33FEED33FDEC33FC0B
:1000D500C933C910D7059BE99A4007EC9BFCE99AFF
:1000E500F90FD8E0E4C9FAE4CCFB2275F010EF2F44
:1000F500FFEE33FEED33FDCC33CCC833C810D70744
:100105009BEC9AE899400AED9BFDEC9AFCE899F87E
:0E0115000FD5F0DAE4CDFBE4CCFAE4C8F92211
:100123007401FF3395E0FEFDFC080808E6CF2FF6C7
:1001330018E6CE3EF618E6CD3DF618E6CC3CF622A0
:00000001FF
