:050110001200BD80FBA0
:10008F00202010000000C0000000F9000000A400B4
:10009F000000B000000099000000920000008200F4
:0D00AF000000F8080801020408102040803D
:1000E30075E2FF75E1FFE4F5CCF5CBC2F88513E8C3
:0100F30022EA
:1000BD001200E3E4F530E53025E025E02410F812D8
:1000CD0001048FE87FE81200F40530E530C3940891
:0500DD0040E48513E87A
:0100E20022FB
:0F00F4007D607C09ED1D70011C144C70F7DFF16D
:0101030022D9
:03000000020003F8
:0C000300787FE4F6D8FD75813002004AD9
:0C010400E6FC08E6FD08E6FE08E6FF2227
:10000F00020110E493A3F8E493A34003F68001F2F6
:10001F0008DFF48029E493A3F85407240CC8C333F2
:10002F00C4540F4420C8834004F456800146F6DFC1
:10003F00E4800B010204081020408090008FE47EC2
:10004F00019360BCA3FF543F30E509541FFEE493B6
:10005F00A360010ECF54C025E060A840B8E493A37D
:10006F00FAE493A3F8E493A3C8C582C8CAC583CAA8
:10007F00F0A3C8C582C8CAC583CADFE9DEE780BE60
:0100BC000043
:00000001FF
