:06012400010B00010CFFBD
:1000C60012021012030E1202911202B2850B0C7567
:1000D600E8FF75F8FEE50B75F00A84E5F025E025E6
:1000E600E0242AF81201D08FE87F0212036475E833
:1000F600FF75F8FDE50B75F00A8425E025E0242A56
:10010600F81201D08FE87F02120364E50B650C60DC
:0E011600BE1200037F05120364850B0C80B13E
:100291007F1012023E8F087F05120364E508D39494
:1002A10063500485080B22E4F50BFD7F1012026CEC
:0102B100222A
:07000300AD0B7F1002026C3F
:0300C3000202CF67
:1002CF00C0E0C083C08290FE82E030E606E054BFFB
:0A02DF00F0C200D082D083D0E032DC
:1002100043BA90E4F594F593F592F591F596F5953A
:10022000F5B2F5B1F5B4F5B3F5CAF5C9F5CCF5CB32
:0E02300090FE8074E0F090FE82E4F0D2AF22E7
:0C037400D20090FE817481F02000FD2278
:1003200090FE86EFF0D20090FE817482F02000FDF6
:0103300022AA
:0C038000D20090FE817483F02000FD226A
:10033100D20090FE817484F02000FD90FE87E0FFE2
:010341002299
:1003420090FE82E4F0D20090FE817485F02000FDE0
:010352002288
:1002FC0090FE827401F0D20090FE817485F0200093
:02030C00FD22D0
:0C038C00D20090FE817486F02000FD225B
:1002E900E4FFFE000000000FBF00010EBE0BF4BFCB
:0202F900B8F15A
:0102FB0022E0
:0F0364007D607C09ED1D70011C144C70F7DFF1FA
:010373002267
:10035300EF1FAC0670011E4C60060000000080F029
:010363002277
:10026C008F098D0A1203747FA0120320120380AF32
:10027C0009120320120380AF0A120320120380120A
:05028C00038C0202E9F1
:02023E008F0926
:100240001203747FA0120320120380AF091203204F
:100250001203801203747FA1120320120380120381
:0B026000318F0A1202FC12038CAF0A5F
:01026B002270
:05012A00C101010D0000
:1002B20075E2FF75E1FFE4F5CCF5CBF58EF58975B6
:0D02C2008810758AB0758C3CD2AFD2A9228D
:03000B0002009A56
:10009A00C0E0C0D0758AB0758C3C050DE50DC394DF
:1000AA0014400F750D00050BE50BD39463400375DF
:0900BA000B00D201D0D0D0E032DD
:10012F0020282A000000C0000000F9000000A400F1
:10013F000000B00000009900000092000000820053
:10014F000000F80000008000000090082201020467
:08015F0008102040800121007E
:10030E0075E2FFE4F5E175CCFFF5CB75F8FF852DB1
:02031E00E822D3
:10016800E4F5E8EFC394014031EFD39408502B74C1
:10017800212FF8E6F4F5F8EDD39409500FED25E0BA
:1001880025E0242AF81201D08FE8800375E8FF7F64
:0B01980001120364E4F5E875F8FF2293
:1001DC0075F8FF8521827583001201A325E025E0C7
:1001EC00242AF81201D08FE8AF217401A8070880E7
:1001FC0002C333D8FCF4F5F8E521045407F5217F4C
:04020C000102036484
:0300000002000EED
:0C000E00787FE4F6D8FD758151020055A2
:1001A300BB010CE58229F582E5833AF583E0225011
:1001B30006E92582F8E622BBFE06E92582F8E2225B
:0D01C300E58229F582E5833AF583E4932275
:0C01D000E6FC08E6FD08E6FE08E6FF225B
:10001A000200C6E493A3F8E493A34003F68001F236
:10002A0008DFF48029E493A3F85407240CC8C333E7
:10003A00C4540F4420C8834004F456800146F6DFB6
:10004A00E4800B0102040810204080900124E47E21
:10005A00019360BCA3FF543F30E509541FFEE493AB
:10006A00A360010ECF54C025E060A840B8E493A372
:10007A00FAE493A3F8E493A3C8C582C8CAC583CA9D
:10008A00F0A3C8C582C8CAC583CADFE9DEE780BE55
:010167000097
:00000001FF
