:03000000020006F5
:0C000600787FE4F6D8FD75811402004DEF
:1001B8001200C612009212015512017E1200F98037
:0101C800FE38
:0F01DA007D607C09ED1D70011C144C70F7DFF186
:0101E90022F3
:0D01C9000809FEFDFBF7EFDFBF7F01080115
:1000C60043BA80759330759430759130759230755A
:1000D600953C75963C75B15075B25075B33C75B488
:1000E6003C75C90C75CA0CE4F5CBF5CCF5E1F5E227
:0300F600C2C02263
:100092001200C675E8FFE4F513AF137401A8070850
:1000A2008002C333D8FCF4F5E87F321201DA75E836
:1000B200FF7F321201DA0513E513C3940840DA7F99
:0400C200F40201DA69
:100155001200C675E8FFE4F5127F7FA812EF08804C
:100165000103D8FDF5E87F641201DA0512E512C333
:09017500940840E57FF40201DA70
:10017E001200C675E8FFE4F51174092511F8E6F5CD
:10018E00E87FC81201DA0511E511C3940840EA7F31
:04019E00F40201DA8C
:1000F9001200C675E8FF75130875E8FFAF137401A0
:10010900A807088002C333D8FCF452E87FC812015B
:0F011900DA1513E513C3940050DF7FF40201DA07
:0301D60001140011
:1001280075B4FF75B3FFE4F5CCF5CBC2C0F58E53BB
:1001380089F0F589758AB0758C3CD28C308DFDC2FA
:0D0148008D0514E514B414F463E8FF80EF96
:030003000201A255
:1001A200C0E0C0D00514E514B4140675140063E869
:0601B200FFD0D0D0E032C6
:100012000201B8E493A3F8E493A34003F68001F24B
:1000220008DFF48029E493A3F85407240CC8C333EF
:10003200C4540F4420C8834004F456800146F6DFBE
:10004200E4800B01020408102040809001C9E47E84
:10005200019360BCA3FF543F30E509541FFEE493B3
:10006200A360010ECF54C025E060A840B8E493A37A
:10007200FAE493A3F8E493A3C8C582C8CAC583CAA5
:10008200F0A3C8C582C8CAC583CADFE9DEE780BE5D
:0101D9000025
:00000001FF
