:030000000200B447
:0C00B400787FE4F6D8FD7581470200FB60
:0301A6000147FF0F
:08039B0012025C12033E80FE19
:0300230002039243
:09039200859947C2988547E832BD
:0F0382007D607C09ED1D70011C144C70F7DFF1DC
:010391002249
:10037100EF1FAC0670011E4C60060000000080F00B
:010381002259
:0D01A9000839FEFDFBF7EFDFBF7F014201CB
:10025C0043BA8075933075943075913075923075C2
:10026C00953C75963C75B15075B25075B33C75B4F0
:10027C003C75C90C75CA0CE4F5CBF5CCF5E1F5E28F
:03028C00C2C022CB
:1002280012025C75E8FFE4F543AF437401A80708C0
:100238008002C333D8FCF4F5E87F3212038275E8F4
:10024800FF7F321203820543E543C3940840DA7FF7
:04025800F402038227
:1002F10012025C75E8FFE4F5427F7FA842EF0880B7
:100301000103D8FDF5E87F641203820542E542C38B
:09031100940840E57FF402038228
:10031A0012025C75E8FFE4F54174392541F8E6F507
:10032A00E87FC81203820541E541C3940840EA7F89
:04033A00F402038244
:1002C20012025C75E8FF75430875E8FFAF437401DD
:1002D200A807088002C333D8FCF452E87FC812038F
:0F02E200821543E543C3940050DF7FF40203828B
:1000030075E2FF75E1FFE4F5CCF5CBF58EF5897567
:0D0013008AB0758C3C758810D2AFD2A9223E
:1001B600202811000000C0000000F9000000A40083
:1001C6000000B000000099000000920000008200CC
:1001D6000000F800000080000000900809010204F9
:0801E600081020408001080010
:10035F0075E2FF75E1FFE4F5CCF5CB75F8FF851479
:02036F00E82282
:1001400012035FE4F5E8EF14B40800504790015B38
:1001500075F003A4C58325F0C58373020173020102
:100160007702017B02017F02018302018702018B7A
:1001700002018FE510801AE50F8016E50E8012E56A
:100180000D800EE50C800AE50B8006E50A8002E58D
:1001900009F4F5F8ED25E025E02411F812021C8F92
:0601A000E87F010203826A
:10028F00E4F5F8850882F5831201EF25E025E024D7
:10029F0011F812021C8FE8AF087401A8070880023A
:1002AF00C333D8FCF4F5F8E508045407F5087F01CB
:0302BF00020382B5
:0603A300E4F594F593223D
:100026001203A375800FE580640F607B7F0A1203BD
:1000360082E580640F60737580BFE58064BF6005EC
:10004600E4F544801175807F7F0A120382E580649F
:100056007F6003754401E58020E005E4F545801CDA
:10006600E58020E1057545018012E58020E20575F1
:1000760045028008E58020E303754503E54425E055
:1000860025E02545F546AF807E00E5447005FC7DFC
:10009600BF80047C007D7FEDB507EBECB506E77FFE
:0D00A6000A120382AF46227F10227580FFF0
:0100B300222A
:10033E0053877F759850538EBF538EFE53890F434C
:10034E008920758BFD758DFDC2ABD28ED2AFD2AC2E
:01035E00227C
:1000C00002039BE493A3F8E493A34003F68001F2B8
:1000D00008DFF48029E493A3F85407240CC8C33341
:1000E000C4540F4420C8834004F456800146F6DF10
:1000F000E4800B01020408102040809001A6E47EF9
:10010000019360BCA3FF543F30E509541FFEE49304
:10011000A360010ECF54C025E060A840B8E493A3CB
:10012000FAE493A3F8E493A3C8C582C8CAC583CAF6
:10013000F0A3C8C582C8CAC583CADFE9DEE780BEAE
:0101EE000010
:1001EF00BB010CE58229F582E5833AF583E02250C5
:1001FF0006E92582F8E622BBFE06E92582F8E2220F
:0D020F00E58229F582E5833AF583E4932228
:0C021C00E6FC08E6FD08E6FE08E6FF220E
:00000001FF
