:03000000020225D4
:0C022500787FE4F6D8FD75814B02026C76
:04031700024500009B
:1000E2001200151204A91201978F4875E8FF75F8DE
:1000F200FE7F0A7E001204E6AE45AF467C007D0A12
:1001020012004BED25E025E02411F81200818FE862
:100112007F051204F775E8FF75F8FD7F0A7E00126D
:1001220004E6AE45AF467C007D0A12004BEF25E0A7
:1001320025E02411F81200818FE87F051204F7E50B
:10014200487002C28CE548B40102D28CE548B40280
:10015200180546E54670020545D39463E54564807B
:1001620094804005E4F545F546E548B40317E546B5
:10017200154670021545C3E54564809480500675A6
:100182004500754663E548640460030200E8F545EE
:05019200F5460200E843
:03001B000203FBE2
:1003FB00C0E0C0D0758B00758D280547E547B4C8A4
:10040B001C7547000546E54670020545D39463E528
:10041B0045648094804006754500754600D0D0D069
:02042B00E032BD
:0F04F7007D607C09ED1D70011C144C70F7DFF166
:0105060022D2
:1004E600EF1FAC0670011E4C60060000000080F095
:0104F60022E3
:0D031B00083AFEFDFBF7EFDFBF7F0139015F
:1003950043BA807593307594307591307592307588
:1003A500953C75963C75B15075B25075B33C75B4B6
:1003B5003C75C90C75CA0CE4F5CBF5CCF5E1F5E255
:0303C500C2C02291
:1003610012039575E8FFE4F544AF447401A807084A
:100371008002C333D8FCF4F5E87F321204F775E844
:10038100FF7F321204F70544E544C3940840DA7F45
:04039100F40204F777
:10045C0012039575E8FFE4F5437F7FA843EF08800E
:10046C000103D8FDF5E87F641204F70543E543C3A7
:09047C00940840E57FF40204F746
:1004850012039575E8FFE4F542743A2542F8E6F55E
:10049500E87FC81204F70542E542C3940840EA7FA5
:0404A500F40204F762
:10042D0012039575E8FF75440875E8FFAF44740134
:10043D00A807088002C333D8FCF452E87FC8120421
:0F044D00F71544E544C3940050DF7FF40204F731
:1004A90075E2FF75E1FFE4F5CCF5CB758E407589F2
:1004B90010758840F58B758D28D28ED2AFD2AB22BC
:1004C90075E2FF75E1FFE4F5CCF5CBF58EF589759D
:0D04D9008810758AB0758C3CD2AFD2A92274
:10032800202811000000C0000000F9000000A4000F
:100338000000B00000009900000092000000820058
:100348000000F80000008000000090080901020485
:0803580008102040800108009C
:1000030075E2FF75E1FFE4F5CCF5CB75F8FF8514D8
:02001300E822E1
:1002B100120003E4F5E8EF14B4080050479002CCB3
:1002C10075F003A4C58325F0C583730202E402021D
:1002D100E80202EC0202F00202F40202F80202FC5D
:1002E100020300E510801AE50F8016E50E8012E585
:1002F1000D800EE50C800AE50B8006E50A8002E51B
:1003010009F4F5F8ED25E025E02411F81200818FBC
:06031100E87F010204F781
:1003C800E4F5F8850882F58312001E25E025E0246F
:1003D80011F81200818FE8AF087401A8070880029D
:1003E800C333D8FCF4F5F8E508045407F5087F0191
:0303F8000204F705
:06001500E4F594F59322CE
:1001970012001575800FE580640F607B7F0A1204DB
:1001A700F7E580640F60737580BFE58064BF600505
:1001B700E4F549801175807F7F0A1204F7E58064B2
:1001C7007F6003754901E58020E005E4F54A801C5E
:1001D700E58020E105754A018012E58020E205757A
:1001E7004A028008E58020E303754A03E54925E0D4
:1001F70025E0254AF54BAF807E00E5497005FC7D7B
:10020700BF80047C007D7FEDB507EBECB506E77F8B
:0D0217000A1204F7AF4B227F10227580FF02
:0102240022B7
:100231000200E2E493A3F8E493A34003F68001F201
:1002410008DFF48029E493A3F85407240CC8C333CE
:10025100C4540F4420C8834004F456800146F6DF9D
:10026100E4800B0102040810204080900317E47E13
:10027100019360BCA3FF543F30E509541FFEE49392
:10028100A360010ECF54C025E060A840B8E493A359
:10029100FAE493A3F8E493A3C8C582C8CAC583CA84
:1002A100F0A3C8C582C8CAC583CADFE9DEE780BE3C
:01036000009C
:10001E00BB010CE58229F582E5833AF583E0225097
:10002E0006E92582F8E622BBFE06E92582F8E222E1
:0D003E00E58229F582E5833AF583E49322FB
:10004B00C2D5EC30E709B2D5E4C39DFDE49CFCEED0
:10005B0030E715B2D5E4C39FFFE49EFE12008DC3BB
:10006B00E49DFDE49CFC800312008D30D507C3E4B6
:06007B009FFFE49EFE223F
:0C008100E6FC08E6FD08E6FE08E6FF22AB
:10008D00BC000BBE0029EF8DF084FFADF022E4CC57
:10009D00F875F008EF2FFFEE33FEEC33FCEE9DEC20
:1000AD00984005FCEE9DFE0FD5F0E9E4CEFD22ED66
:1000BD00F8F5F0EE8420D21CFEADF075F008EF2FB0
:1000CD00FFED33FD4007985006D5F0F222C398FDA1
:0500DD000FD5F0EA223E
:00000001FF
