:03000000020003F8
:0C000300787FE4F6D8FD75811402004AF5
:080198001200CB1200FE80FBF7
:0F017A007D607C09ED1D70011C144C70F7DFF1E6
:010189002253
:0D018A000809FEFDFBF7EFDFBF7F01080154
:1000CB0043BA807593307594307591307592307555
:1000DB00953C75963C75B15075B25075B33C75B483
:1000EB003C75C90C75CA0CE4F5CBF5CCF5E1F5E222
:0300FB00C2C0225E
:10008F00E4F5141200CB75E8FFE4F513AF13740118
:10009F00A807088002C333D8FCF4F5E87F321201B9
:1000AF007A75E8FF74642514F514FF12017A0513AD
:0C00BF00E513C3940840D57FF402017AD9
:10012D001200CB75E8FFE4F5127F7FA812EF08806F
:10013D000103D8FDF5E87F6412017A0512E512C3BB
:09014D00940840E57FF402017AF8
:100156001200CB75E8FFE4F51174092511F8E6F5F0
:10016600E87FC812017A0511E511C3940840EA7FB9
:04017600F402017A14
:1000FE001200CB75E8FF75130875E8FFAF13740196
:10010E00A807088002C333D8FCF4F5E87FC81201B3
:0F011E007A1513E513C3940050DF7FF402017AC2
:10000F00020198E493A3F8E493A34003F68001F26E
:10001F0008DFF48029E493A3F85407240CC8C333F2
:10002F00C4540F4420C8834004F456800146F6DFC1
:10003F00E4800B010204081020408090018AE47EC6
:10004F00019360BCA3FF543F30E509541FFEE493B6
:10005F00A360010ECF54C025E060A840B8E493A37D
:10006F00FAE493A3F8E493A3C8C582C8CAC583CAA8
:10007F00F0A3C8C582C8CAC583CADFE9DEE780BE60
:010197000067
:00000001FF
