:10021600010832010A3B010917010BFF010DFF011D
:020226000CFFCB
:1000C6001203B012048C12026A7F051204E21204B3
:1000D6003085080B850A0D85090C75F8FFE522F4B5
:1000E600F5F8E50875F00A84E5F025E025E0242A10
:1000F600F81202F48FE87F011204E275F8FFE52397
:10010600F4F5F8E50875F00A8425E025E0242AF8D8
:100116001202F48FE87F011204E275F8FFE524F479
:10012600F5F8AF55AE54AD53AC521202E78FE87FE7
:10013600011204E275F8FFE525F4F5F8E50A75F015
:100146000A84E5F025E025E0242AF81202F48FE877
:100156007F011204E275F8FFE526F4F5F8E50A7565
:10016600F00A8425E025E0242AF81202F48FE87FBD
:10017600011204E275F8FFE527F4F5F8AF55AE5421
:10018600AD53AC521202E78FE87F011204E275F814
:10019600FFE528F4F5F8E50975F00A84E5F025E0B1
:1001A60025E0242AF81202F48FE87F011204E27592
:1001B600F8FFE529F4F5F8E50975F00A8425E02548
:1001C600E0242AF81202F48FE87F011204E2E50A1D
:1001D600650D60047F0180027F00E508650B600401
:1001E6007E0180027E00EE4FFFE509650C60047E0D
:1001F6000180027E00EE4F70030200E012040C7FC5
:10020600051204E285080B850A0D85090C0200E03B
:10040C00AD087F1512009A7F051204E2AD0A7F1623
:10041C0012009A7F051204E2AD097F1712009A7F31
:04042C00050204E2DF
:10026A007F151203DE8F0E7F051204E27F1612033A
:10027A00DE8F0F7F051204E27F171203DE8F107FD5
:10028A00051204E2E50EC3943C5018E50FC3943CF2
:10029A005011E510C39418500A850E08850F0A8577
:0F02AA00100922750832750A3B75091712040CEA
:0102B9002222
:0300C30002044DE7
:10044D00C0E0C083C08290FE82E030E606E054BF7B
:0A045D00F0C200D082D083D0E0325C
:1003B00043BA90E4F594F593F592F591F596F59599
:1003C000F5B2F5B1F5B4F5B3F5CAF5C9F5CCF5CB91
:0E03D00090FE8074E0F090FE82E4F0D2AF2246
:0C04F200D20090FE817481F02000FD22F9
:10049E0090FE86EFF0D20090FE817482F02000FD77
:0104AE00222B
:0C04FE00D20090FE817483F02000FD22EB
:1004AF00D20090FE817484F02000FD90FE87E0FF63
:0104BF00221A
:1004C00090FE82E4F0D20090FE817485F02000FD61
:0104D0002209
:10047A0090FE827401F0D20090FE817485F0200013
:02048A00FD2251
:0C050A00D20090FE817486F02000FD22DB
:10046700E4FFFE000000000FBF00010EBE0BF4BF4B
:02047700B8F1DA
:010479002260
:0F04E2007D607C09ED1D70011C144C70F7DFF17B
:0104F10022E8
:1004D100EF1FAC0670011E4C60060000000080F0AA
:0104E10022F8
:10009A008F118D121204F27FA012049E1204FEAF79
:1000AA001112049E1204FEAF1212049E1204FE12D2
:0500BA00050A020467C5
:0203DE008F117D
:1003E0001204F27FA012049E1204FEAF1112049EAA
:1003F0001204FE1204F27FA112049E1204FE1204E3
:0B040000AF8F1212047A12050AAF122F
:01040B0022CE
:05022800C101011300FB
:1004300075E2FF75E1FFE4F5CCF5CBF58EF5897536
:0D0440008810758AB0758C3CD2AFD2A9220D
:03000B00020300ED
:10030000C0E0C0D0758AB0758C3C0513E513C3946A
:100310001440277513000508E508D3943B401B756E
:100320000800050AE50AD3943B400F750A00050949
:10033000E509D394174003750900D201D0D0D0E06D
:01034000328A
:10022D00202C2A000000C0000000F9000000A400EE
:10023D000000B00000009900000092000000820054
:10024D000000F80000008000000090000000480849
:0C025D0022010204081020408001210052
:10048C0075E2FFE4F5E175CCFFF5CB75F8FF852D32
:02049C00E82254
:10034100E4F5E8EFC394014031EFD39408502B74E6
:10035100212FF8E6F4F5F8EDD39409500FED25E0DF
:1003610025E0242AF81202F48FE8800375E8FF7F64
:0B037100011204E2E4F5E875F8FF2239
:10037C0075F8FF8521827583001202BA25E025E00D
:10038C00242AF81202F48FE8AF217401A807088020
:10039C0002C333D8FCF4F5F8E521045407F5217FAA
:0403AC00010204E264
:0300000002000EED
:0C000E00787FE4F6D8FD7581550200559E
:1002BA00BB010CE58229F582E5833AF583E02250F9
:1002CA0006E92582F8E622BBFE06E92582F8E22243
:0D02DA00E58229F582E5833AF583E493225D
:0D02E700CFF4CFCEF4CECDF4CDCCF4CC22AC
:0C02F400E6FC08E6FD08E6FE08E6FF2236
:10001A000200C6E493A3F8E493A34003F68001F236
:10002A0008DFF48029E493A3F85407240CC8C333E7
:10003A00C4540F4420C8834004F456800146F6DFB6
:10004A00E4800B0102040810204080900216E47E2E
:10005A00019360BCA3FF543F30E509541FFEE493AB
:10006A00A360010ECF54C025E060A840B8E493A372
:10007A00FAE493A3F8E493A3C8C582C8CAC583CA9D
:10008A00F0A3C8C582C8CAC583CADFE9DEE780BE55
:010269000094
:00000001FF
