:1007B8004100460042006200004200400000420042
:1007C8003E00004200500000420044001C4200422B
:1007D80009C448005AC1FFFFFFFFFFFFFF4800524E
:1007E8008CFFFFFFFFFFFFFF480048C6FFFFFFFF2A
:0B07F800FFFFFF41004700C100C101EE
:100CE400120C7C120003D2CC120D31120D1C43DE07
:0F0CF4002043BC80120968120B3012052C80F5CA
:03001B000206E9F1
:1006E900C0E0C0F0C083C082C0D075D000C000C0D7
:1006F90001C002C003C004C005C006C007758B183D
:10070900758DFC900041E004F07006900040E00413
:10071900F0900044E0FEA3E0FF7C007D64120350EA
:10072900D3900043E09F900042E09E404520014D58
:10073900C2CC90003FE004F0700690003EE004F067
:10074900C390003FE0948890003EE0941340047FFA
:100759000180027F00E580640F60047E0180027ED3
:1007690000EF4E6018D2CCD20190003EE4F0A3F025
:10077900800BD2CC90003EE4F0A3F0C2019000417E
:10078900E030E005120BCA800B75F8FF75E8FFC26F
:10079900C0120CC4D007D006D005D004D003D002B3
:0F07A900D001D000D0D0D082D083D0F0D0E032B9
:10052C00900047E0FA60030205E2900042E0FEA36F
:10053C00E0FF7C037DE812036274662FF582740D74
:10054C003EF583E49390004CF0900042E0FEA3E073
:10055C00FF7C007D641203627C007D0A12036274CE
:10056C00662DF582740D3CF583E493547F90004D19
:10057C00F0900042E0FEA3E0FF7C007D0A120362D3
:10058C007C007D0A12036274662DF582740D3CF5B5
:10059C0083E49390004EF0900042E0FEA3E0FF7CD9
:1005AC00007D0A12036274662DF582740D3CF5838E
:1005BC00E49390004FF0E4FB74482BF582E4340094
:1005CC00F583E0FF740A2BF582E43400F583EFF039
:1005DC000BEBB408E322EA6401705E900044E0FE89
:1005EC00A3E0FF7C007D0A12036274662FF582740F
:1005FC000D3EF583E493900058F0900044E0FEA388
:10060C00E0FF7C007D0A12036274662DF582740D86
:10061C003CF583E493900059F0E4FB74522BF58283
:10062C00E43400F583E0FF740A2BF582E43400F522
:10063C0083EFF00BEBB408E322900047E064026018
:10064C00030206E8900062E0FEA3E0FF7C007D64FC
:10065C0012036274662FF582740D3EF583E4935495
:10066C007F90005FF0900062E0FEA3E0FF7C007DD5
:10067C00641203627E007F0ACFCDCFCECCCE1203A4
:10068C006274662FF582740D3EF583E493900060DE
:10069C00F0900062E0FEA3E0FF7C007D6412036238
:1006AC007E007F0ACFCDCFCECCCE12036274662DE6
:1006BC00F582740D3CF583E493900061F0E4FB74D7
:1006CC005A2BF582E43400F583E0FF740A2BF58293
:0C06DC00E43400F583EFF00BEBB408E30E
:0106E80022EF
:100B3000C3900041E094F4900040E094014043E40D
:100B4000F0A3F0C2AF120D031209E7900042EEF0DD
:100B5000A3EFF07F03120C4C900062EEF0A3EFF0D5
:100B6000900062E0FEA3E0FF7C007DFA1204FFE447
:100B7000FB7A10F9F8120442900062EEF0A3EFF055
:030B8000D2AF22CF
:100968001208E3900046EFF024FB60171460171498
:10097800604224037068900047E004F0E06403706C
:100988005DF022B20022900047E064017050D390DD
:100998000045E09400900044E09400400DA3E0245A
:1009A800FFF0900044E034FFF022900044E4F0A30C
:1009B8007463F022900047E0B40123C3900045E03F
:1009C8009463900044E09400500DA3E004F0700E8E
:0F09D800900044E004F022E4900044F0A3F022E9
:100CC40043E80F300019900047E014600B14600CE7
:100CD4002402700B53E8FE2253E8FD2253E8FB2262
:0F0D77007D607C09ED1D70011C144C70F7DFF1DD
:010D8600224A
:100D5500EF1FAC0670011E4C60060000000080F01D
:010D6500226B
:100D1C00538E7F53890F758B18758DFCC28FD28EB5
:050D2C00D2ABD2AF22A2
:100D31005389F0438905C28DD28CE4F58AF58CC2C2
:020D4100A922E5
:0C0D9600438E0443AF04D2AF538EEF2213
:060A650090006B1204F387
:100A6B00E4FFFEFDFC90006BE0F8A3E0F9A3E0FAD5
:100A7B00A3E0FBC31204E260177F807E8D7D5B7C5D
:100A8B000090006BE0F8A3A3A3E0D31204E24006AE
:100A9B00538EEFC2A322E47F02FEFDFC90006BE0BD
:100AAB00F8A3E0F9A3E0FAA3E0FB1203B7A804A9AB
:100ABB0005AA06AB077F007E1B7DB77C00120442A4
:0D0ACB00C3E49FFFE49EF5D68FD7438E1045
:010AD80022FB
:0300630002006038
:03006000B2A33216
:100D6600C0F9A4B0999282F88090BFFF8EC1888C9A
:010D7600C6B6
:10080300602C0012000000C0000000F9000000A4EA
:10081300000000B000000099000000920000008278
:10082300000000F800000080000000900000004875
:10083300480002010204081020408048000AFFFF1C
:0E084300FFFFFFFFFFFF41000000410001002A
:0F0D870075E2FFE4F5E175CCFFF5CB75F8FF22BF
:100B8300E4F5E8EFC39401403DEFD3940850377484
:100B9300022FF582E43400F583E0F5F8EDD39409F0
:100BA3005016ED25E025E02412F582E43400F583A8
:100BB300A3A3A3E0F5E8800375E8FF7F01120D7797
:070BC300E4F5E875F8FF22DC
:10001E0075F8FF900000E0F582758300120323252A
:10002E00E025E02412F582E43400F583A3A3A3E0D7
:10003E00F5E8900000E0FF7401A807088002C333C2
:10004E00D8FCF4F5F8EF045407900000F07F01029D
:02005E000D771C
:100BCA00D2C075E8FF7FFE900001E0FEF8EF0880D2
:100BDA000123D8FDF5F8EEFFC374079FFFE49400E4
:100BEA00FE740A2FF58274003EF583E0F5E8900062
:100BFA0001E0C394075004E004F022E4900001F0FD
:010C0A0022C7
:060DA200E4F594F5932234
:1008E30075800FE580640F60797F0A120D77E580CC
:1008F300640F606B7580BFE58064BF6007E49000A0
:1009030064F0801975807F7F0A120D77E580647F1C
:1009130060089000647401F080037F1022E580205A
:10092300E007E4900065F0801DE58020E108900079
:10093300657401F08010E58090006520E205740283
:10094300F080037403F0900064E025E025E0FFA34A
:10095300E02FFFE580647F600BE580B4BFF5227F65
:0409630010227F10CF
:01096700226D
:100D430043BA80E4F5CB75CCFF53B3FE43B401C281
:020D5300C022BC
:100C4C00E4F5BDF5BEE5BC54E044404FF5BC0000F6
:100C5C0000007F107E27E5BC20E509EF1F70011E08
:0F0C6C00144E70F253BCDFAFBDEFFEADBEEDFF17
:010C7B002256
:100C7C00E4F594F593F592F591F596F595F5B2F5B5
:100C8C00B1F5B4F5B3F5CAF5C9F5CCF5CBF5E2F58C
:050C9C00E14391082274
:0508510042006F0000F1
:10000300E4F5B1F5B275CBFF75CCFFF5E1F5E2F59B
:06001300C9F5CA020D034D
:100CA100C2B37F587E02120D55D2B37F3C7E001233
:100CB1000D55A2B3920330B3FD7F287E00120D556E
:020CC100A2038C
:010CC300220E
:050C0B00900069EFF00C
:100C1000C2AFA37401F090006AE0FF602CC2B30081
:100C200000900069E0FEEF5E7004C2B38002D2B3B0
:100C30007F3C7E00120D55D2B37F0A7E00120D5507
:0B0C400090006AE025E0F080CDD2AF0C
:010C4B002286
:100AD900E4900069F0A3F0C2AF04F090006AE0600E
:100AE9003EC2B3000000000000D2B30000000000C5
:100AF900007F0A7E00120D55900069E0FFA3E020F7
:100B0900B306F4FEEF5E8003FEEF4E900069F07FBE
:100B19003C7E00120D5590006AE025E0F080BCD2C1
:060B2900AF900069E0FF3F
:010B2F0022A3
:100D0300120CA1920220020A7FCC120C0B7F441218
:090D13000C0B7FF47E01020D556A
:1009E700120CA1920220026D7FCC120C0B7FBE125B
:1009F7000C0B120AD9900064EFF0120AD9EFFE909F
:100A07000064E07C002400FFEC3EFE90006FF0A342
:100A1700EFF0FDAC06E4120269E4FBFA7980783D59
:100A270012015E9000651204F3E4FFFEFD7C3F9027
:100A37000065E0F8A3E0F9A3E0FAA3E0FB12006D7C
:100A4700E4FBFA79C8784212015E1202A290006FA5
:0D0A5700EEF0A3EFF090006FE0FEA3E0FFD3
:010A6400226F
:1000660002030EE86480F8E933E83360110460F0B7
:10007600ED33EC337009E8FCE9FDEAFEEBFF220400
:1000860060DED3EB9FEA9EE99DE8C2E78CF0C2F7FB
:1000960095F0400CE8CCF8E9CDF9EACEFAEBCFFBC7
:1000A6001202D985D0F05804700320D5B3E8047045
:1000B600075002B2D502031892D5EC0460F7E4CCDF
:1000C600C0E0C398F8603B94186008400DD0E0FB90
:1000D6000202F0E4FBFAC9FC8028E830E406E4C931
:1000E600FBE4CAFCE830E305E4C9CACBFCE85407E4
:1000F6006010F8C3E913F9EA13FAEB13FBEC13FCEF
:10010600D8F130F52FC3E49CFCEF9BFFEE9AFEED91
:1001160099FDD0E0FBEF4E4D4C701222DB0302033B
:1001260015EC2CFCEF33FFEE33FEED33FDED30E73F
:10013600EB0202F0EF2BFFEE3AFEED39FDD0E0FBCD
:1001460050130BBB0003020318ED13FDEE13FEEF75
:0801560013FFEC13FC0202F0A0
:10015E00EC4D6011E8497017ED33EC3304600DE49B
:10016E00FCFFFEFD22E933E8330470F802030E12A1
:10017E0002D958046009E4CC2481500628500902A3
:10018E000318284003020315C0E0EB4A7044B980FF
:10019E0006D0E0FB020304EF4E701CBD8008EBFF9F
:1001AE00EAFEE9FD80EBE98DF0A4FEE5F0020247E0
:1001BE00E9CDF9EAFEEBFFEF89F0A4FCE5F0CE897C
:1001CE00F0A42EFFE435F0CD89F0A42DFEE435F039
:1001DE008067EF4E7005BD80D780C3EF8BF0A4AC67
:1001EE00F0EE8BF0A42CFCE435F0F8EF8AF0A42CA2
:1001FE00E5F038FCE433CB8DF0A42CFCE5F03BF8B5
:10020E00EE8AF0A42CFCE5F038F8E433CF89F0A4A4
:10021E002CFCE5F038CF3400CE89F0A42FFFE5F0AA
:10022E003EFEE433C98DF0A42EFEE5F039CD8AF002
:10023E00A42FFFE5F03EFEE43DFD33D0E0FB50077A
:10024E000BBB000F020318EC2CFCEF33FFEE33FE5A
:06025E00ED33FD0202F089
:1002640075F020800E75F010800575F0087D007E15
:10027400007F003392D530D5031204D4EC33401000
:10028400EF33FFEE33FEED33FDEC33FCD5F0ED221E
:0E029400E5F0247EA2D513CC92E7CDCEFF225A
:1002A200EDD2E7CD33EC3392D524814006E4FFFE54
:1002B200FDFC22FCE4CFCECDCC24E0501174FF80B3
:1002C200EDC3CC13CCCD13CDCE13CECF13CF047050
:0702D200F030D5DE0204D478
:1002D900E9D2E7C933E833F892D5EDD2E7CD33EC6B
:0702E90033FC5002B2D522E4
:1002F000EC30E7100FBF000C0EBE00080DBD00046F
:100300000BEB6014A2D5EB13FCED92E7FD2274FF1A
:10031000FCFDFEFF22E480F8A2D574FF13FC7D8073
:03032000E480EF87
:030000000208579C
:0C085700787FE4F6D8FD75812002089E31
:10032300BB010CE58229F582E5833AF583E022508F
:1003330006E92582F8E622BBFE06E92582F8E222D9
:0D034300E58229F582E5833AF583E49322F3
:10035000EF8DF0A4A8F0CF8CF0A428CE8DF0A42EC1
:02036000FE227B
:10036200BC000BBE0029EF8DF084FFADF022E4CC7F
:10037200F875F008EF2FFFEE33FEEC33FCEE9DEC48
:10038200984005FCEE9DFE0FD5F0E9E4CEFD22ED8E
:10039200F8F5F0EE8420D21CFEADF075F008EF2FD8
:1003A200FFED33FD4007985006D5F0F222C398FDC9
:0503B2000FD5F0EA2266
:1003B700E88FF0A4CC8BF0A42CFCE98EF0A42CFCE5
:1003C7008AF0EDA42CFCEA8EF0A4CDA8F08BF0A463
:1003D7002DCC3825F0FDE98FF0A42CCD35F0FCEBC2
:1003E7008EF0A4FEA9F0EB8FF0A4CFC5F02ECD3987
:0F03F700FEE43CFCEAA42DCE35F0FDE43CFC22F4
:1004060075F008758200EF2FFFEE33FECD33CDCCAD
:1004160033CCC58233C5829BED9AEC99E582984030
:100426000CF582EE9BFEED9AFDEC99FC0FD5F0D60D
:10043600E4CEFBE4CDFAE4CCF9A88222B800C1B937
:100446000059BA002DEC8BF084CFCECDFCE5F0CB75
:10045600F97818EF2FFFEE33FEED33FDEC33FCEBAE
:1004660033FB10D703994004EB99FB0FD8E5E4F969
:10047600FA227818EF2FFFEE33FEED33FDEC33FC56
:10048600C933C910D7059BE99A4007EC9BFCE99A4A
:10049600F90FD8E0E4C9FAE4CCFB2275F010EF2F8F
:1004A600FFEE33FEED33FDCC33CCC833C810D7078F
:1004B6009BEC9AE899400AED9BFDEC9AFCE899F8CA
:0E04C6000FD5F0DAE4CDFBE4CCFAE4C8F9225D
:0E04D400C3E49FFFE49EFEE49DFDE49CFC2239
:1004E200EB9FF5F0EA9E42F0E99D42F0E89C45F070
:0104F20022E7
:0C04F300ECF0A3EDF0A3EEF0A3EFF0227C
:1004FF00EC8EF0A4CCC5F0CCCDF8EFA4CEC5F02D8A
:10050F00FDE43CFCE8A42EC8C5F03DFDE43CFCEF47
:0D051F00A4FFE5F028FEE43DFDE43CFC22D5
:10086300020CE4E493A3F8E493A34003F68001F2BB
:1008730008DFF48029E493A3F85407240CC8C33396
:10088300C4540F4420C8834004F456800146F6DF65
:10089300E4800B01020408102040809007B8E47E36
:1008A300019360BCA3FF543F30E509541FFEE4935A
:1008B300A360010ECF54C025E060A840B8E493A321
:1008C300FAE493A3F8E493A3C8C582C8CAC583CA4C
:1008D300F0A3C8C582C8CAC583CADFE9DEE780BE04
:0108560000A1
:00000001FF
