:030000000200B447
:0C00B400787FE4F6D8FD75815F0200FB48
:100204001203B312039275E8FF75F8FEE55F540F0D
:1002140025E025E02411F81202708FE87F0512030F
:10022400D675E8FF75F8FDE55FC4540F25E025E0B9
:0F0234002411F81202708FE87F051203D680C7DD
:030023000203E6EF
:0603E60085995FC2983208
:0F03D6007D607C09ED1D70011C144C70F7DFF188
:0103E50022F5
:1003C500EF1FAC0670011E4C60060000000080F0B7
:0103D5002205
:0D01A6000851FEFDFBF7EFDFBF7F015A019E
:1002B00043BA80759330759430759130759230756E
:1002C000953C75963C75B15075B25075B33C75B49C
:1002D0003C75C90C75CA0CE4F5CBF5CCF5E1F5E23B
:0302E000C2C02277
:10027C001202B075E8FFE4F55BAF5B7401A80708E8
:10028C008002C333D8FCF4F5E87F321203D675E84C
:10029C00FF7F321203D6055BE55BC3940840DA7F1F
:0402AC00F40203D67F
:100345001202B075E8FFE4F55A7F7FA85AEF0880DE
:100355000103D8FDF5E87F641203D6055AE55AC3B3
:09036500940840E57FF40203D680
:10036E001202B075E8FFE4F55974512559F8E6F517
:10037E00E87FC81203D60559E559C3940840EA7FB1
:04038E00F40203D69C
:100316001202B075E8FF755B0875E8FFAF5B740104
:10032600A807088002C333D8FCF452E87FC812033A
:0F033600D6155BE55BC3940050DF7FF40203D65E
:1000030075E2FF75E1FFE4F5CCF5CBF58EF5897567
:0D0013008AB0758C3C758810D2AFD2A9223E
:1001B300204011000000C0000000F9000000A4006E
:1001C3000000B000000099000000920000008200CF
:1001D3000000F8000000800000009000000088008C
:1001E300000083000000C6000000A100000086009C
:1001F30000008E0809010204081020408001080055
:1003B30075E2FF75E1FFE4F5CCF5CB75F8FF851425
:0203C300E8222E
:100140001203B3E4F5E8EF14B40800504790015BE4
:1001500075F003A4C58325F0C58373020173020102
:100160007702017B02017F02018302018702018B7A
:1001700002018FE510801AE50F8016E50E8012E56A
:100180000D800EE50C800AE50B8006E50A8002E58D
:1001900009F4F5F8ED25E025E02411F81202708F3E
:0601A000E87F010203D616
:1002E300E4F5F8850882F58312024325E025E0242E
:1002F30011F81202708FE8AF087401A80708800292
:10030300C333D8FCF4F5F8E508045407F5087F0176
:030313000203D60C
:0603EC00E4F594F59322F4
:100026001203EC75800FE580640F607B7F0A120374
:10003600D6E580640F60737580BFE58064BF600598
:10004600E4F55C801175807F7F0A1203D6E5806433
:100056007F6003755C01E58020E005E4F55D801CAA
:10006600E58020E105755D018012E58020E20575D9
:100076005D028008E58020E303755D03E55C25E00D
:1000860025E0255DF55EAF807E00E55C7005FC7DB4
:10009600BF80047C007D7FEDB507EBECB506E77FFE
:0D00A6000A1203D6AF5E227F10227580FF84
:0100B300222A
:1003920053877F759850538EBF538EFE53890F43F8
:1003A2008920758BFD758DFDC2ABD28ED2AFD2ACDA
:0103B2002228
:1000C000020204E493A3F8E493A34003F68001F250
:1000D00008DFF48029E493A3F85407240CC8C33341
:1000E000C4540F4420C8834004F456800146F6DF10
:1000F000E4800B01020408102040809001A6E47EF9
:10010000019360BCA3FF543F30E509541FFEE49304
:10011000A360010ECF54C025E060A840B8E493A3CB
:10012000FAE493A3F8E493A3C8C582C8CAC583CAF6
:10013000F0A3C8C582C8CAC583CADFE9DEE780BEAE
:0102030000FA
:10024300BB010CE58229F582E5833AF583E0225070
:1002530006E92582F8E622BBFE06E92582F8E222BA
:0D026300E58229F582E5833AF583E49322D4
:0C027000E6FC08E6FD08E6FE08E6FF22BA
:00000001FF
