:03000000020026D5
:0C002600787FE4F6D8FD75815C02006D67
:1001C20012038A12032C75E8FF75F8FEE55C540FE2
:1001D20025E025E02411F812022E8FE87F05120394
:1001E2009B75E8FF75F8FDE55CC4540F25E025E03A
:0F01F2002411F812022E8FE87F0512039B80C79D
:0300230002017661
:10017600C0E0C0F0C083C082C0D075D000C000C04F
:1001860001C002C003C004C005C006C00785995C53
:10019600C298855C997F0212039B309904C29980AC
:1001A600F9D007D006D005D004D003D002D001D0B4
:0C01B60000D0D0D082D083D0F0D0E03256
:0F039B007D607C09ED1D70011C144C70F7DFF1C3
:0103AA002230
:10037900EF1FAC0670011E4C60060000000080F003
:010389002251
:0D0118000851FEFDFBF7EFDFBF7F015A012C
:10026E0043BA8075933075943075913075923075B0
:10027E00953C75963C75B15075B25075B33C75B4DE
:10028E003C75C90C75CA0CE4F5CBF5CCF5E1F5E27D
:03029E00C2C022B9
:10023A0012026E75E8FFE4F55BAF5B7401A807086C
:10024A008002C333D8FCF4F5E87F3212039B75E8C9
:10025A00FF7F3212039B055BE55BC3940840DA7F9C
:04026A00F402039BFC
:1003030012026E75E8FFE4F55A7F7FA85AEF088062
:100313000103D8FDF5E87F6412039B055AE55AC330
:09032300940840E57FF402039BFD
:1003550012026E75E8FFE4F55974512559F8E6F572
:10036500E87FC812039B0559E559C3940840EA7F05
:04037500F402039BF0
:1002D40012026E75E8FF755B0875E8FFAF5B740189
:1002E400A807088002C333D8FCF452E87FC812037D
:0F02F4009B155BE55BC3940050DF7FF402039B17
:1000030075E2FF75E1FFE4F5CCF5CBF58EF5897567
:0D0013008AB0758C3C758810D2AFD2A9223E
:10012500204011000000C0000000F9000000A400FC
:100135000000B0000000990000009200000082005D
:100145000000F8000000800000009000000088001A
:10015500000083000000C6000000A100000086002A
:1001650000008E08090102040810204080010800E3
:10038A0075E2FF75E1FFE4F5CCF5CBF5F88514E8E5
:01039A002240
:1000B20012038AE4F5E8EF14B4080050479000CD2B
:1000C20075F003A4C58325F0C583730200E5020021
:1000D200E90200ED0200F10200F50200F90200FD62
:1000E200020101E510801AE50F8016E50E8012E587
:1000F2000D800EE50C800AE50B8006E50A8002E51C
:1001020009F4F5F8ED25E025E02411F812022E8F0E
:06011200E87F0102039BDF
:1002A100E4F5F8850882F58312020125E025E024B2
:1002B10011F812022E8FE8AF087401A80708800216
:1002C100C333D8FCF4F5F8E508045407F5087F01B9
:0302D10002039B8A
:10032C00438780759850538EBF538EFE53890F436D
:10033C008920758BFA758DFAC2ABD28ED288D2A871
:09034C00D2AFD2ACC299C29822D2
:100032000201C2E493A3F8E493A34003F68001F221
:1000420008DFF48029E493A3F85407240CC8C333CF
:10005200C4540F4420C8834004F456800146F6DF9E
:10006200E4800B0102040810204080900118E47E15
:10007200019360BCA3FF543F30E509541FFEE49393
:10008200A360010ECF54C025E060A840B8E493A35A
:10009200FAE493A3F8E493A3C8C582C8CAC583CA85
:1000A200F0A3C8C582C8CAC583CADFE9DEE780BE3D
:010175000089
:10020100BB010CE58229F582E5833AF583E02250B2
:1002110006E92582F8E622BBFE06E92582F8E222FC
:0D022100E58229F582E5833AF583E4932216
:0C022E00E6FC08E6FD08E6FE08E6FF22FC
:00000001FF
