:10014400E4FDFC7F0112008F7D017C007F02120020
:100154008F7D027C007F0312008F7D037C007F046F
:1001640012008F7D047C007F0512008F7D057C00CA
:100174007F0612008F7D067C007F0712008F7D07AB
:090184007C007F0812008F80B797
:1000F600204010000000C0000000F9000000A4002D
:100106000000B0000000990000009200000082008C
:100116000000F80000008000000090000000880049
:10012600000083000000C6000000A1000000860059
:0D01360000008E080801020408102040801F
:10018D0075E2FF75E1FFE4F5CCF5CB75F8FF85134E
:02019D00E82256
:10008F0012018DEF14B4080050479000A775F003CC
:10009F00A4C58325F0C583730200BF0200C302000D
:1000AF00C70200CB0200CF0200D30200D70200DB51
:1000BF00E50F801AE50E8016E50D8012E50C800E17
:1000CF00E50B800AE50A8006E5098002E508F4F5EC
:1000DF00F8ED25E025E02410F81201AF8FE87F013D
:0700EF0012019FE4F5E82275
:0F019F007D607C09ED1D70011C144C70F7DFF1C1
:0101AE00222E
:03000000020003F8
:0C000300787FE4F6D8FD75814F02004ABA
:0C01AF00E6FC08E6FD08E6FE08E6FF227C
:10000F00020144E493A3F8E493A34003F68001F2C2
:10001F0008DFF48029E493A3F85407240CC8C333F2
:10002F00C4540F4420C8834004F456800146F6DFC1
:10003F00E4800B01020408102040809000F6E47E5B
:10004F00019360BCA3FF543F30E509541FFEE493B6
:10005F00A360010ECF54C025E060A840B8E493A37D
:10006F00FAE493A3F8E493A3C8C582C8CAC583CAA8
:10007F00F0A3C8C582C8CAC583CADFE9DEE780BE60
:0101430000BB
:00000001FF
