:030000000200916A
:0C009100787FE4F6D8FD75815E0200D88F
:0502710012021180FEE5
:0F023F007D607C09ED1D70011C144C70F7DFF120
:01024E00228D
:0F024F007D027C00ED1D70011C144C70F7DFF177
:01025E00227D
:0D0183000851FEFDFBF7EFDFBF7F015001CB
:1001DE0043BA807593307594307591307592307541
:1001EE00953C75963C75B15075B25075B33C75B46F
:1001FE003C75C90C75CA0CE4F5CBF5CCF5E1F5E20E
:03020E00C2C02249
:06026B00E4F594F5932276
:1000030012026B75800FE580640F607B7F0A12021A
:100013003FE580640F60737580BFE58064BF600552
:10002300E4F55C801175807F7F0A12023FE58064EE
:100033007F6003755C01E58020E005E4F55D801CCD
:10004300E58020E105755D018012E58020E20575FC
:100053005D028008E58020E303755D03E55C25E030
:1000630025E0255DF55EAF807E00E55C7005FC7DD7
:10007300BF80047C007D7FEDB507EBECB506E77F21
:0D0083000A12023FAF5E227F10227580FF3F
:01009000224D
:1002110012026BE4FF120003EF64106009EFFD7C32
:0D022100007F0812011D7F6412023F80E67D
:10019000204010000000C0000000F9000000A40092
:1001A0000000B000000099000000920000008200F2
:1001B0000000F800000080000000900000008800AF
:1001C000000083000000C6000000A10000008600BF
:0D01D00000008E0808010204081020408085
:10022E0075E2FF75E1FFE4F5CCF5CBF5F88513E843
:01023E00229D
:10011D0012022EE4F5E8EF14B408005047900138B0
:10012D0075F003A4C58325F0C58373020150020148
:10013D005402015802015C0201600201640201686F
:10014D0002016CE50F801AE50E8016E50D8012E5B3
:10015D000C800EE50B800AE50A8006E5098002E5B4
:10016D0008F4F5F8ED25E025E02410F812025F8F74
:06017D00E87F0102023FD1
:10009D00020271E493A3F8E493A34003F68001F206
:1000AD0008DFF48029E493A3F85407240CC8C33364
:1000BD00C4540F4420C8834004F456800146F6DF33
:1000CD00E4800B0102040810204080900183E47E3F
:1000DD00019360BCA3FF543F30E509541FFEE49328
:1000ED00A360010ECF54C025E060A840B8E493A3EF
:1000FD00FAE493A3F8E493A3C8C582C8CAC583CA1A
:10010D00F0A3C8C582C8CAC583CADFE9DEE780BED1
:0101DD000021
:0C025F00E6FC08E6FD08E6FE08E6FF22CB
:00000001FF
