:0603F0001A0414173B3B48
:0D021E0001100008080000BE0000BE000036
:1000C60043BA80E4F5C9F5CA1203661201BC1203ED
:1000D6000AE510703290FE73E075F00A84F508E0C8
:1000E60075F00A8485F009A3E075F00A84F50BE043
:1000F60075F00A8485F00CA3E075F00A84F50EE02D
:1001060075F00A8485F00FE4F5117FFEA811EF085B
:10011600800123D8FDF5F8E51164026005E511B408
:10012600050A74082511F8E6F5E88015C3740795E5
:10013600112408F8E625E025E0242AF81202D08FDB
:10014600E87F011203BC75E8FF0511E511C39408A9
:1001560040B890FE74E070047F0180027F0090FE3C
:1001660073E070047E0180027E00EE5FFF90FE75F4
:10017600E070047E0180027E00EE5F6005C2CC0264
:1001860000D790FE74E070047F0180027F0090FE2D
:1001960073E070047E0180027E00EE5FFF90FE75C4
:1001A600E0B401047E0180027E00EE5F700302006F
:0601B600D7D2CC0200D7F5
:0300C3000203270E
:10032700C0E0C083C08290FE82E030E606E054BFA2
:0A033700F0C200D082D083D0E03283
:1002DC0043BA90E4F594F593F592F591F596F5956E
:1002EC00F5B2F5B1F5B4F5B3F5CAF5C9F5CCF5CB66
:0E02FC0090FE8074E0F090FE82E4F0D2AF221B
:0C03CC00D20090FE817481F02000FD2220
:1003780090FE86EFF0D20090FE817482F02000FD9E
:010388002252
:0C03D800D20090FE817483F02000FD2212
:10038900D20090FE817484F02000FD90FE87E0FF8A
:010399002241
:10039A0090FE82E4F0D20090FE817485F02000FD88
:0103AA002230
:1003540090FE827401F0D20090FE817485F020003A
:02036400FD2278
:0C03E400D20090FE817486F02000FD2203
:10034100E4FFFE000000000FBF00010EBE0BF4BF72
:02035100B8F101
:010353002287
:0F03BC007D607C09ED1D70011C144C70F7DFF1A2
:0103CB00220F
:1003AB00EF1FAC0670011E4C60060000000080F0D1
:0103BB00221F
:10030A0075E2FF75E1FFE4F5CCF5CBF58EF589755D
:0D031A008810758AB0758C3CD2AFD2A92234
:10022B00202C2A000000C0000000F9000000A400F0
:10023B000000B00000009900000092000000820056
:10024B000000F8000000800000009000000048084B
:0C025B0022010204081020408001210054
:1003660075E2FFE4F5E175CCFFF5CB75F8FF852D59
:02037600E8227B
:10026800E4F5E8EFC394014031EFD39408502B74C0
:10027800212FF8E6F4F5F8EDD39409500FED25E0B9
:1002880025E0242AF81202D08FE8800375E8FF7F62
:0B029800011203BCE4F5E875F8FF223A
:10008F0075F8FF8521827583001202A325E025E014
:10009F00242AF81202D08FE8AF217401A807088034
:1000AF0002C333D8FCF4F5F8E521045407F5217F9A
:0400BF00010203BC7B
:1001BC0090FE0874C0F090FE08E030E0F990FE610B
:1001CC00E054FDF09003F0E49390FE68F09003F19E
:1001DC00E49390FE69F09003F2E49390FE6AF09041
:1001EC0003F3E49390FE6BF09003F4E49390FE6CB5
:1001FC00F09003F5E49390FE6DF0A3E4F090FE61B3
:10020C00E04401F090FE607401F090FE61E020E0AB
:02021C00F922C5
:03000000020003F8
:0C000300787FE4F6D8FD75815502004AB4
:1002A300BB010CE58229F582E5833AF583E0225010
:1002B30006E92582F8E622BBFE06E92582F8E2225A
:0D02C300E58229F582E5833AF583E4932274
:0C02D000E6FC08E6FD08E6FE08E6FF225A
:10000F000200C6E493A3F8E493A34003F68001F241
:10001F0008DFF48029E493A3F85407240CC8C333F2
:10002F00C4540F4420C8834004F456800146F6DFC1
:10003F00E4800B010204081020408090021EE47E31
:10004F00019360BCA3FF543F30E509541FFEE493B6
:10005F00A360010ECF54C025E060A840B8E493A37D
:10006F00FAE493A3F8E493A3C8C582C8CAC583CAA8
:10007F00F0A3C8C582C8CAC583CADFE9DEE780BE60
:010267000096
:00000001FF
