:1006CF004100480042005F006442003E00004200CB
:1006DF0049000044004400000000440040000000B6
:1006EF000044004B00000000480057C1FFFFFFFF10
:1006FF00C0C0C048004F8EFFFFFFFFFFFFFFC102CA
:06070F00C183C100C1011D
:1009DB001209B6120A12120003120AB943DE20439F
:0D09EB00BC8012095A1204D01202E080F5FF
:03001B00020636A4
:10063600C0E0C0F0C083C082C0D075D000C000C08A
:1006460001C002C003C004C005C006C007758B18F0
:10065600758DFC90004AE004F07006900049E004B5
:10066600F090003FE004F0700690003EE004F09049
:10067600003FE030E02D2001031208E9C390004A54
:10068600E094E8900049E094034023E4F0A3F0A34B
:10069600E0FCA3E0FDA3E0FEA3E0FF900040120211
:1006A60076800B75F8FF75E8FFC2C012058CD0077F
:1006B600D006D005D004D003D002D001D000D0D0CF
:0906C600D082D083D0F0D0E032E4
:1002E00030020302036A90005FE0FEA3E0FF7C009F
:1002F0007D0A1200F374AB2DF582740A3CF583E499
:100300009390005EF0A3E0FEA3E0FF7C007D0A1264
:1003100000F37C007D0A1200F374AB2DF582740AA1
:100320003CF583E49390005DF090005FE0FEA3E075
:10033000FF7C007D641200F374AB2FF582740A3EDB
:10034000F583E493547F90005CF0E4FB74572BF545
:1003500082E43400F583E0FF740A2BF582E4340074
:10036000F583EFF00BEBB408E3222002030204CF85
:100370007BA07A8679017800900040E0FCA3E0FD44
:10038000A3E0FEA3E0FF1201D3E47B0AFAF9F8121E
:1003900001D374AB2BF582740A3AF583E493900091
:1003A00051F0E47B107A27F9F8900040E0FCA3E0DC
:1003B000FDA3E0FEA3E0FF1201D3E47B0AFAF9F803
:1003C0001201D374AB2BF582740A3AF583E493904F
:1003D0000052F0E47BE87A03F9F8900040E0FCA3D7
:1003E000E0FDA3E0FEA3E0FF1201D3E47B0AFAF9EB
:1003F000F81201D374AB2BF582740A3AF583E493B7
:10040000900053F0E47B64FAF9F8900040E0FCA31C
:10041000E0FDA3E0FEA3E0FF1201D3E47B0AFAF9BA
:10042000F81201D374AB2BF582740A3AF583E49386
:10043000900054F0E47B0AFAF9F8900040E0FCA345
:10044000E0FDA3E0FEA3E0FF1201D3E47B0AFAF98A
:10045000F81201D374AB2BF582740A3AF583E49356
:10046000900055F0E47B0AFAF9F8900040E0FCA314
:10047000E0FDA3E0FEA3E0FF1201D374AB2BF582F5
:10048000740A3AF583E493900056F07B02744F2B84
:10049000F582E43400F583E064C060028012744F9A
:1004A0002BF582E43400F58374FFF00BEBB407DD29
:1004B000E4FB744F2BF582E43400F583E0FF740A0B
:0F04C0002BF582E43400F583EFF00BEBB408E387
:0104CF00220A
:1004D000C390003FE094F490003EE094015003028A
:1004E000058BE4F0A3F0C2AF20023D20032F7F0371
:1004F00012092A90005FEEF0A3EFF090005FE0FE9B
:10050000A3E0FF7C007DFA1202B3E4FB7A10F9F855
:100510001201D390005FEEF0A3EFF0806C90005FCB
:10052000E4F0A37464F080617F0312092A90005FF5
:10053000EEF0A3EFF0E4FCFD7B3F7A42790FF81276
:100540000148E47BFF7A0FF9F81201D390004B12B7
:1005500002767F3F7E427D0F7C0090004BE0F8A347
:10056000E0F9A3E0FAA3E0FBD3120265400A900091
:100570004B120282000F423F90004BE0FCA3E0FDD3
:0C058000A3E0FEA3E0FF120875D2AF223A
:10095A001207F0900048EFF024FB600D14601914A0
:10096A00601924037017B20222B20330030F9000F9
:0E097A005FE4F0A37464F022B20022B2012206
:10058C0030000675E8FFD2C02290006174FFF020A5
:10059C000238E054FEF090005FE0FEA3E0FFC3944D
:1005AC003CEE94004008EF9478EE94004009C3EFC1
:1005BC0094B4EE94004007900061E054FBF02003EB
:1005CC0062900061E054EFF08059900061E054FDBE
:1005DC00F0E47FE87E03FDFC900040E0F8A3E0F936
:1005EC00A3E0FAA3E0FBC31202654015E47F887E0A
:1005FC0013FDFC900040E0F8A3A3A3E012026540B9
:10060C001BE47F107E27FDFC900040E0F8A3E0F98E
:10061C00A3E0FAA3E0FBC31202654007900061E07F
:09062C0054F7F0900061E0F5E8DC
:0106350022A2
:0F0A8C007D607C09ED1D70011C144C70F7DFF1CB
:010A9B002238
:100A4800EF1FAC0670011E4C60060000000080F02D
:010A5800227B
:10000300538E7F53890F758B18758DFCC28FD28EDB
:05001300D2ABD2AF22C8
:100A12005389F0438905C28DD28CE4F58AF58CC2E4
:020A2200A92207
:0C0AB900438E0443AF04D2AF538EEF22F3
:0608750090006212027601
:10087B00E4FFFEFDFC900062E0F8A3E0F9A3E0FAD0
:10088B00A3E0FBC312026560177F807E8D7D5B7CCE
:10089B0000900062E0F8A3A3A3E0D3120265400628
:1008AB00538EEFC2A322E47F02FEFDFC900062E0B8
:1008BB00F8A3E0F9A3E0FAA3E0FB120148A804A90E
:1008CB0005AA06AB077F007E1B7DB77C001201D308
:0D08DB00C3E49FFFE49EF5D68FD7438E1037
:0108E80022ED
:0300630002001880
:03001800B2A3325E
:0E0AAB00C0F9A4B0999282F88090BFFF8EC16E
:10071500602C0012000000C0000000F9000000A4D9
:10072500000000B000000099000000920000008267
:10073500000000F800000080000000900000004864
:10074500480002010204081020408048000AFFFF0B
:0E075500FFFFFFFFFFFF410000004100010019
:0F0A9C0075E2FFE4F5E175CCFFF5CB75F8FF22AD
:10006600E4F5E8EFC39401403DEFD39408503774AC
:10007600022FF582E43400F583E0F5F8EDD3940918
:100086005016ED25E025E02412F582E43400F583D0
:10009600A3A3A3E0F5E8800375E8FF7F01120A8CAD
:0700A600E4F5E875F8FF2204
:10001E0075F8FF900000E0F5827583001200C6258A
:10002E00E025E02412F582E43400F583A3A3A3E0D7
:10003E00F5E8900000E0FF7401A807088002C333C2
:10004E00D8FCF4F5F8EF045407900000F07F01029D
:02005E000A8C0A
:1008E900D2C075E8FF7FFE900001E0FEF8EF0880B6
:1008F9000123D8FDF5F8EEFFC374079FFFE49400C8
:10090900FE740A2FF58274003EF583E0F5E8900045
:1009190001E0C394075004E004F022E4900001F0E0
:0109290022AB
:0300C3000209F837
:1009F800C0E0C083C08290FE82E030E606E054BFCB
:0A0A0800F0C204D082D083D0E032A7
:1009880043BA90E4F594F593F592F591F596F595BB
:10099800F5B2F5B1F5B4F5B3F5CAF5C9F5CCF5CBB3
:0E09A80090FE8074E0F090FE82E4F0D2AF2268
:0C0AC500D20490FE817481F02004FD2218
:100A590090FE86EFF0D20490FE817482F02004FDAE
:010A6900226A
:0C0AD100D20490FE817483F02004FD220A
:100A6A00D20490FE817484F02004FD90FE87E0FF9A
:010A7A002259
:100A7B0090FE82E4F0D20490FE817485F02004FD98
:010A8B002248
:100A240090FE827401F0D20490FE817485F020045B
:020A3400FD22A1
:0C0ADD00D20490FE817486F02004FD22FB
:1000AD00E4FFFE000000000FBF00010EBE0BF4BF09
:0200BD00B8F198
:0100BF00221E
:060AE900E4F594F59322F0
:1007F00075800FE580640F60797F0A120A8CE580AE
:10080000640F606B7580BFE58064BF6007E4900093
:1008100062F0801975807F7F0A120A8CE580647F00
:1008200060089000627401F080037F1022E5802050
:10083000E007E4900063F0801DE58020E10890006F
:10084000637401F08010E58090006320E20574027B
:10085000F080037403F0900062E025E025E0FFA340
:10086000E02FFFE580647F600BE580B4BFF5227F59
:0408700010227F10C3
:010874002261
:100A360043BA80E4F5CB75CCFF53B3FE43B401C291
:020A4600C022CC
:10092A00E4F5BDF5BEE5BC54E044404FF5BC00001B
:10093A0000007F107E27E5BC20E509EF1F70011E2D
:0F094A00144E70F253BCDFAFBDEFFEADBEEDFF3C
:01095900227B
:1009B600E4F594F593F592F591F596F595F5B2F57E
:1009C600B1F5B4F5B3F5CAF5C9F5CCF5CBF5E2F555
:0509D600E1439108223D
:0300000002076490
:0C076400787FE4F6D8FD7581200207AB19
:1000C600BB010CE58229F582E5833AF583E02250EF
:1000D60006E92582F8E622BBFE06E92582F8E22239
:0D00E600E58229F582E5833AF583E4932253
:1000F300BC000BBE0029EF8DF084FFADF022E4CCF1
:10010300F875F008EF2FFFEE33FEEC33FCEE9DECB9
:10011300984005FCEE9DFE0FD5F0E9E4CEFD22EDFF
:10012300F8F5F0EE8420D21CFEADF075F008EF2F49
:10013300FFED33FD4007985006D5F0F222C398FD3A
:050143000FD5F0EA22D7
:10014800E88FF0A4CC8BF0A42CFCE98EF0A42CFC56
:100158008AF0EDA42CFCEA8EF0A4CDA8F08BF0A4D4
:100168002DCC3825F0FDE98FF0A42CCD35F0FCEB33
:100178008EF0A4FEA9F0EB8FF0A4CFC5F02ECD39F8
:0F018800FEE43CFCEAA42DCE35F0FDE43CFC2265
:1001970075F008758200EF2FFFEE33FECD33CDCC1F
:1001A70033CCC58233C5829BED9AEC99E5829840A2
:1001B7000CF582EE9BFEED9AFDEC99FC0FD5F0D67F
:1001C700E4CEFBE4CDFAE4CCF9A88222B800C1B9A9
:1001D7000059BA002DEC8BF084CFCECDFCE5F0CBE7
:1001E700F97818EF2FFFEE33FEED33FDEC33FCEB20
:1001F70033FB10D703994004EB99FB0FD8E5E4F9DB
:10020700FA227818EF2FFFEE33FEED33FDEC33FCC7
:10021700C933C910D7059BE99A4007EC9BFCE99ABB
:10022700F90FD8E0E4C9FAE4CCFB2275F010EF2F00
:10023700FFEE33FEED33FDCC33CCC833C810D70700
:100247009BEC9AE899400AED9BFDEC9AFCE899F83B
:0E0257000FD5F0DAE4CDFBE4CCFAE4C8F922CE
:10026500EB9FF5F0EA9E42F0E99D42F0E89C45F0EF
:010275002266
:0C027600ECF0A3EDF0A3EEF0A3EFF022FB
:10028200A8828583F0D083D0821202991202991239
:100292000299120299E473E493A3C583C5F0C5835E
:1002A200C8C582C8F0A3C583C5F0C583C8C582C8C6
:0102B2002229
:1002B300EC8EF0A4CCC5F0CCCDF8EFA4CEC5F02DD8
:1002C300FDE43CFCE8A42EC8C5F03DFDE43CFCEF96
:0D02D300A4FFE5F028FEE43DFDE43CFC2224
:100770000209DBE493A3F8E493A34003F68001F2BB
:1007800008DFF48029E493A3F85407240CC8C3338A
:10079000C4540F4420C8834004F456800146F6DF59
:1007A000E4800B01020408102040809006CFE47E14
:1007B000019360BCA3FF543F30E509541FFEE4934E
:1007C000A360010ECF54C025E060A840B8E493A315
:1007D000FAE493A3F8E493A3C8C582C8CAC583CA40
:1007E000F0A3C8C582C8CAC583CADFE9DEE780BEF8
:010763000095
:00000001FF
