:0C098C00C0F9A4B0999282F88090BFFFDF
:100703004200490000420046000041005D004400F1
:100713003F326496C8410043004100450141005304
:1007230001410048014100360041005CFF410044A3
:100733000448004BFFFFFFFFFFFFFFFFC101C100A4
:08074300C102C10341003500B1
:1000A20012087D12000312091712097D1208DF12CD
:1000B20008C51204261205BE2002FA12042680F593
:03000B00020235B9
:10023500C0E0C0F0C083C082C0D075D000C000C08F
:0D02450001C002C003C004C005C006C00710
:1002520090004AE004F07006900049E004F090003B
:1002620044E0FF7E007C037DE812003BC390004A1D
:10027200E09F900049E09E400AE4F0A3F0300103C1
:1002820012032F900047E004F07006900046E0044D
:10029200F0C3900047E09440900046E0941F40096C
:1002A200E4F0A3F0B20012042690005DE004F0E056
:1002B200C394C84002E4F090005DE0FCD3941E5069
:1002C2002ED2C075F8FF900035E0FE2437F582E4A7
:1002D2003400F583E0F5E87401A806088002C33310
:1002E200D8FCF4F5F8900035E0045407F080239030
:1002F2000045E0243EF582E43400F583E0FFECC3E0
:100302009F500D75F8FFC2C090005CE0F5E88002D6
:02031200D2C057
:10031400D007D006D005D004D003D002D001D0003D
:0B032400D0D0D082D083D0F0D0E032E7
:1005BE001204FAEF14601614603C14606A1470038F
:1005CE0002066724046003020676B20122900048F8
:1005DE00E0900053F0900043E004F0D2021200C607
:1005EE00120426900043E0C39403407CE4F0C20260
:1005FE001204260209BC30026F900043E0FFB401E2
:10060E0014300211900053E004F0E0D39404404300
:10061E007401F0803EEFB4020C900044E0C3940CE1
:10062E005031E004F0802C30023E900043E0FFB4E5
:10063E000111900053E014F0E0C3940150157404BE
:10064E00F08010EFB4020C900044E0D39404400309
:10065E00E014F01200C6020426900045E004F0E01B
:08066E00D3940440037401F071
:010676002261
:1000C600900044E075F064A4FF90005EE5F0F0A3B4
:1000D600EFF0900043E064017055FB900997E493BC
:1000E600FF74542BF582E43400F583EFF00BEBB488
:1000F60008E9900996E493FF90005BF0900053E0C6
:1001060090098C9390005AF0900059EFF0900044BB
:10011600E0FAC3940A5002805EEAD39409500302BF
:100126000234900044E0940D40030202348075903E
:100136000043E064026003020234FB900997E493F3
:10014600FF74542BF582E43400F583EFF00BEBB427
:1001560008E9900996E493FF90005BF0900053E065
:1001660090098C9390005AF0900059EFF09000445B
:10017600E0FAC3940A501990005EE0FEA3E0FF7C0B
:10018600007D6412004D748C2FF58274093E8051F7
:10019600EAD394095003020234900044E0940D40DF
:1001A6000302023490005EE0FEA3E0FF7C037DE8DC
:1001B60012004D748C2FF58274093EF583E49390FA
:1001C6000057F090005EE0FEA3E0FF7C007D641225
:1001D600004D7C007D0A12004D748C2DF582740949
:1001E6003CF583E493900056F090005EE0FEA3E0B9
:1001F600FF7C007D0A12004D7C007D0A12004D74C2
:100206008C2DF58274093CF583E493900055F090AB
:10021600005EE0FEA3E0FF7C007D0A12004D748CB8
:0E0226002DF58274093CF583E493900054F0AA
:0102340022A7
:10042600300334200231900043E0702BFF9009978F
:10043600E493FE74372FF582E43400F583EEF00F73
:10044600EFB406E9900996E493900038F0900045E1
:10045600E090098C93807E2002030204E0E4FF749E
:10046600542FF582E43400F583E0FE74372FF582CD
:10047600E43400F583EEF00FEFB408E33000749037
:100486000043E0FEB40111900997E49390003EF01A
:1004960090003DF090003CF0EE64027056900044EF
:1004A600E0FEC3940A500F900997E493900039F048
:1004B600900038F0801FEED394094037900044E056
:1004C600940D502F900997E49390003AF0900039DC
:1004D600F0900038F0900037F022E4FF900997E49E
:1004E60093FE74372FF582E43400F583EEF00FEFB8
:0304F600B408E95E
:0104F90022E0
:10032F00300213900053E0FF900048E06F6007EF3A
:10033F00F0E4900036F0900048E024FE603A14603C
:10034F00611470030203E62403600302041A7F7F23
:10035F00900036E0F8EF08800103D8FD90005CF0C4
:10036F00900036E004F0E0C394085003020425E443
:10037F00F09000487402F0227FFE900036E0F8EF14
:10038F0008800123D8FD90005CF0900036E004F067
:10039F00E0C394085003020425E4F090004874036E
:1003AF00F0227FFE900036E0FEF8EF08800123D8A0
:1003BF00FDFD7F7FA806EF08800103D8FD5D90004B
:1003CF005CF0900036E004F0E0C394044048E4F0A1
:1003DF009000487404F0227FF7900036E0FEF8EFAB
:1003EF0008800103D8FDFD7FEFA806EF08800123E9
:1003FF00D8FD5D90005CF0900036E004F0E0C3940F
:10040F00044013E4F090004804F022900048740177
:07041F00F0E4900036F0222A
:0F096D007D607C09ED1D70011C144C70F7DFF1EB
:01097C002258
:10092900EF1FAC0670011E4C60060000000080F04D
:01093900229B
:1008DF00E4F58EF589758810758AA4758CFFD2AFF3
:0308EF00D2A92269
:10074B00602C0009000000C0000000F9000000A4AC
:10075B00000000B000000099000000920000008231
:10076B00000000F80000008000000090000000482E
:0F077B00480001010204081020408041000000E6
:0F097D0075E2FFE4F5E175CCFFF5CB75F8FF22CD
:10078B00E4F5E8EFC39401403DEFD3940850377480
:10079B00012FF582E43400F583E0F5F8EDD39409ED
:1007AB005016ED25E025E02409F582E43400F583AD
:1007BB00A3A3A3E0F5E8800375E8FF7F0112096DA1
:0707CB00E4F5E875F8FF22D8
:1007D20075F8FF900000E0F58275830012000E2587
:1007E200E025E02409F582E43400F583A3A3A3E025
:1007F200F5E8900000E0FF7401A807088002C33307
:10080200D8FCF4F5F8EF045407900000F07F0102E1
:02081200096D6E
:0300C3000208AB85
:1008AB00C0E0C083C08290FE82E030E606E054BF19
:0A08BB00F0C204D082D083D0E032F6
:10087D0043BA90E4F594F593F592F591F596F595C7
:10088D00F5B2F5B1F5B4F5B3F5CAF5C9F5CCF5CBBF
:0E089D0090FE8074E0F090FE82E4F0D2AF2274
:0C099800D20490FE817481F02004FD2246
:10093A0090FE86EFF0D20490FE817482F02004FDCE
:01094A00228A
:0C09A400D20490FE817483F02004FD2238
:10094B00D20490FE817484F02004FD90FE87E0FFBA
:01095B002279
:10095C0090FE82E4F0D20490FE817485F02004FDB8
:01096C002268
:1009050090FE827401F0D20490FE817485F020047B
:02091500FD22C1
:0C09B000D20490FE817486F02004FD2229
:1008F200E4FFFE000000000FBF00010EBE0BF4BFBC
:02090200B8F14A
:0109040022D0
:10084E0090005EEFF0A3EDF01209987FA012093A26
:10085E001209A490005EE0FF12093A1209A490005A
:0F086E005FE0FF12093A1209A41209B00208F262
:0508140090005EEFF012
:100819001209987FA012093A1209A490005EE0FF1C
:1008290012093A1209A41209987FA112093A120968
:10083900A412094B90005FEFF01209051209B0905C
:04084900005FE0FF6D
:01084D002288
:0A09BC00900044E0FDE4FF02084E45
:1008C500EFC394045009EF940C40047F048005E4C1
:0908D500FF120814900044EFF03A
:0108DE0022F7
:06000300E4F594F59322E0
:1004FA0075800FE580640F70030205BB7F0A12093D
:10050A006DE580640F70030205B87580BF7F011224
:10051A00096DE58064BF6007E490005EF0801C7599
:10052A00807F7F0112096DE580647F600890005E1C
:10053A007401F080067580FF7F1022E58020E007B5
:10054A00E490005FF0801DE58020E10890005F7470
:10055A0001F08010E58090005F20E2057402F080CF
:10056A00037403F090005EE025E025E0FFA3E02F8E
:10057A00FFA3F0BF031D20021AD203900045E0FF3B
:10058A00600590098C8004900990E493900052F0E1
:10059A0012042690005EE07008E58064BF60078060
:1005AA00F8E580B47FFBC203900060E0FF227F1071
:0305BA00227F108D
:0105BD00221B
:1009170043BA80E4F5CB75CCFF53B3FE43B401C2B1
:02092700C022EC
:030000000206777E
:0C067700787FE4F6D8FD7581200206BEF5
:10000E00BB010CE58229F582E5833AF583E02250A7
:10001E0006E92582F8E622BBFE06E92582F8E222F1
:0D002E00E58229F582E5833AF583E493220B
:10003B00EF8DF0A4A8F0CF8CF0A428CE8DF0A42ED9
:02004B00FE2293
:10004D00BC000BBE0029EF8DF084FFADF022E4CC97
:10005D00F875F008EF2FFFEE33FEEC33FCEE9DEC60
:10006D00984005FCEE9DFE0FD5F0E9E4CEFD22EDA6
:10007D00F8F5F0EE8420D21CFEADF075F008EF2FF0
:10008D00FFED33FD4007985006D5F0F222C398FDE1
:05009D000FD5F0EA227E
:100683000200A2E493A3F8E493A34003F68001F2EB
:1006930008DFF48029E493A3F85407240CC8C33378
:1006A300C4540F4420C8834004F456800146F6DF47
:1006B300E4800B0102040810204080900703E47ECD
:1006C300019360BCA3FF543F30E509541FFEE4933C
:1006D300A360010ECF54C025E060A840B8E493A303
:1006E300FAE493A3F8E493A3C8C582C8CAC583CA2E
:1006F300F0A3C8C582C8CAC583CADFE9DEE780BEE6
:01078A00006E
:00000001FF
