:0300000002025B9E
:0C025B00787FE4F6D8FD75816E0202A2E7
:0902E70003630000000261000045
:1001970012056D120538E569C39432400CE4F56920
:1001A7007F0F1205158E6C8F6DAE6CAF6D7C007D69
:1001B700FA12016AE4FB7A10F9F81200CC8E618F0B
:1001C700627C007D0A12003B8D63AE61AF627C00EA
:1001D7007D0A12003B7C007D0A12003B8D64AE61F4
:1001E700AF627C007D6412003B8F65E4F56AF56BB6
:1001F700C3E56B9403E56A9400509B75E8FF7FFEA7
:10020700AE6BA806EF08800123D8FDF5F8E56B640F
:1002170002456A701874632EF8E625E025E024117C
:10022700F812015EEF547FFFE48FE88012746325B4
:100237006BF8E625E025E02411F812015E8FE87FD0
:10024700011205A575E8FF75F8FF056BE56B70A052
:04025700056A809C18
:0F05A5007D607C09ED1D70011C144C70F7DFF1B7
:0105B4002224
:10059400EF1FAC0670011E4C60060000000080F0E6
:0105A4002234
:0D02F0000856FEFDFBF7EFDFBF7F01550153
:1004330043BA8075933075943075913075923075E9
:10044300953C75963C75B15075B25075B33C75B417
:100453003C75C90C75CA0CE4F5CBF5CCF5E1F5E2B6
:03046300C2C022F2
:1003FF0012043375E8FFE4F560AF607401A80708D5
:10040F008002C333D8FCF4F5E87F321205A575E8F6
:10041F00FF7F321205A50560E560C3940840DA7FBF
:04042F00F40205A529
:1004C80012043375E8FFE4F55F7F7FA85FEF0880CB
:1004D8000103D8FDF5E87F641205A5055FE55FC354
:0904E800940840E57FF40205A52B
:1004F10012043375E8FFE4F55E7456255EF8E6F5FF
:10050100E87FC81205A5055EE55EC3940840EA7F51
:04051100F40205A546
:1004990012043375E8FF75600875E8FFAF607401F1
:1004A900A807088002C333D8FCF452E87FC81205B4
:0F04B900A51560E560C3940050DF7FF40205A530
:0302FD00016E008F
:1005380075E2FF75E1FFE4F5CCF5CB758E7F758923
:0F054800F0758810758AFF758CFFD2AFD2A9228B
:030003000205579C
:10055700C0E0C0D0056EE56EB41406756E0063E8A2
:06056700FFD0D0D0E0320D
:0C0300000167000169000168000166004F
:10056D0075CBFF75CCFFE4F5E1F5E243910843DE71
:05057D002075BC802286
:10051500E4F5BDF5BEE5BC54E044404FF5BC000034
:100525000000E5BC30E5FB53BCDFAFBDEFFEADBE63
:03053500EDFF22B5
:1003C700EFC394E05005E4F568F566E4F97E01E9CA
:1003D70024E0FDEFC39D4013E92420FDE433FCEF47
:1003E700D39DEC6480F874809840040EBE11E0EE53
:0703F700D3941050028E6741
:0103FE0022DC
:03000B00020006EA
:0300060005693257
:10030C00204411000000C0000000F9000000A4000F
:10031C000000B00000009900000092000000820074
:10032C000000F80000008000000090000000880031
:10033C00000083000000C6000000A1000000860041
:10034C0000008E000000FF08090102040810204084
:04035C008001080014
:1005820075E2FF75E1FFE4F5CCF5CB75F8FF851454
:02059200E8225D
:10036100120582E4F5E8EF14B40800504790037CCD
:1003710075F003A4C58325F0C583730203940203BA
:100381009802039C0203A00203A40203A80203AC87
:100391000203B0E510801AE50F8016E50E8012E524
:1003A1000D800EE50C800AE50B8006E50A8002E56A
:1003B10009F4F5F8ED25E025E02411F812015E8F2E
:0603C100E87F010205A522
:10046600E4F5F8850882F58312000E25E025E024E0
:1004760011F812015E8FE8AF087401A80708800220
:10048600C333D8FCF4F5F8E508045407F5087F01F2
:030496000205A5B7
:10026700020197E493A3F8E493A34003F68001F215
:1002770008DFF48029E493A3F85407240CC8C33398
:10028700C4540F4420C8834004F456800146F6DF67
:10029700E4800B01020408102040809002E7E47E0E
:1002A700019360BCA3FF543F30E509541FFEE4935C
:1002B700A360010ECF54C025E060A840B8E493A323
:1002C700FAE493A3F8E493A3C8C582C8CAC583CA4E
:1002D700F0A3C8C582C8CAC583CADFE9DEE780BE06
:01036000009C
:10000E00BB010CE58229F582E5833AF583E02250A7
:10001E0006E92582F8E622BBFE06E92582F8E222F1
:0D002E00E58229F582E5833AF583E493220B
:10003B00BC000BBE0029EF8DF084FFADF022E4CCA9
:10004B00F875F008EF2FFFEE33FEEC33FCEE9DEC72
:10005B00984005FCEE9DFE0FD5F0E9E4CEFD22EDB8
:10006B00F8F5F0EE8420D21CFEADF075F008EF2F02
:10007B00FFED33FD4007985006D5F0F222C398FDF3
:05008B000FD5F0EA2290
:1000900075F008758200EF2FFFEE33FECD33CDCC27
:1000A00033CCC58233C5829BED9AEC99E5829840AA
:1000B0000CF582EE9BFEED9AFDEC99FC0FD5F0D687
:1000C000E4CEFBE4CDFAE4CCF9A88222B800C1B9B1
:1000D0000059BA002DEC8BF084CFCECDFCE5F0CBEF
:1000E000F97818EF2FFFEE33FEED33FDEC33FCEB28
:1000F00033FB10D703994004EB99FB0FD8E5E4F9E3
:10010000FA227818EF2FFFEE33FEED33FDEC33FCCF
:10011000C933C910D7059BE99A4007EC9BFCE99AC3
:10012000F90FD8E0E4C9FAE4CCFB2275F010EF2F08
:10013000FFEE33FEED33FDCC33CCC833C810D70708
:100140009BEC9AE899400AED9BFDEC9AFCE899F843
:0E0150000FD5F0DAE4CDFBE4CCFAE4C8F922D6
:0C015E00E6FC08E6FD08E6FE08E6FF22CD
:10016A00EC8EF0A4CCC5F0CCCDF8EFA4CEC5F02D22
:10017A00FDE43CFCE8A42EC8C5F03DFDE43CFCEFE0
:0D018A00A4FFE5F028FEE43DFDE43CFC226E
:00000001FF
